{
  "contractName": "SimpleStorage",
  "abi": [
    {
      "constant": false,
      "inputs": [
        {
          "name": "x",
          "type": "string"
        }
      ],
      "name": "set",
      "outputs": [],
      "payable": false,
      "stateMutability": "nonpayable",
      "type": "function"
    },
    {
      "constant": true,
      "inputs": [],
      "name": "get",
      "outputs": [
        {
          "name": "",
          "type": "string"
        }
      ],
      "payable": false,
      "stateMutability": "view",
      "type": "function"
    }
  ],
  "bytecode": "0x6060604052341561000f57600080fd5b6102c38061001e6000396000f30060606040526004361061004b5763ffffffff7c01000000000000000000000000000000000000000000000000000000006000350416634ed3885e81146100505780636d4ce63c146100a3575b600080fd5b341561005b57600080fd5b6100a160046024813581810190830135806020601f8201819004810201604051908101604052818152929190602084018383808284375094965061012d95505050505050565b005b34156100ae57600080fd5b6100b6610144565b60405160208082528190810183818151815260200191508051906020019080838360005b838110156100f25780820151838201526020016100da565b50505050905090810190601f16801561011f5780820380516001836020036101000a031916815260200191505b509250505060405180910390f35b60008180516101409291602001906101ed565b5050565b61014c61026b565b60008054600181600116156101000203166002900480601f0160208091040260200160405190810160405280929190818152602001828054600181600116156101000203166002900480156101e25780601f106101b7576101008083540402835291602001916101e2565b820191906000526020600020905b8154815290600101906020018083116101c557829003601f168201915b505050505090505b90565b828054600181600116156101000203166002900490600052602060002090601f016020900481019282601f1061022e57805160ff191683800117855561025b565b8280016001018555821561025b579182015b8281111561025b578251825591602001919060010190610240565b5061026792915061027d565b5090565b60206040519081016040526000815290565b6101ea91905b8082111561026757600081556001016102835600a165627a7a72305820c28ad3df1b9476bbebe446a505970b5f4306f7d4a3ca6ed16476f8acc2ee1fe10029",
  "source": "pragma solidity ^0.4.20;\r\n\r\ncontract SimpleStorage {\r\n\tstring value;\r\n\tfunction set(string x) public {\r\n\t\tvalue = x;\r\n\t}\r\n\r\n\tfunction get() public view returns (string) {\r\n\t\treturn value;\r\n\t}\r\n}",
  "sourcePath": "G:\\Tutorials\\Ethereum\\hd_wallet\\contracts\\SimpleStorage.sol",
  "compiler": {
    "name": "solc",
    "version": "0.4.21+commit.dfe3193c.Emscripten.clang"
  },
  "schemaVersion": "2.0.0",
  "updatedAt": "2018-09-01T18:01:59.584Z"
}